S0150000424D503138305F73656E736F722E737265639E
S1130000982A0020E9060000E5060000E506000045
S113001000000000000000000000000000000000DC
S1130020000000000000000000000000E5060000E1
S11300300000000000000000E5060000E5060000E6
S1130040E5060000E5060000E5060000E506000000
S1130050E5060000E5060000E5060000E5060000F0
S1130060E5060000E5060000E5060000E5060000E0
S1130070E5060000E5060000E5060000E5060000D0
S1130080E5060000E5060000E5060000E5060000C0
S1130090E5060000E5060000E5060000E5060000B0
S11300A0E5060000E5060000E5060000E5060000A0
S11300B00000000010B5064C2378002B07D1054B37
S11300C0002B02D0044800E000BF0123237010BDC0
S11300D0B0090020000000007CA70000084B10B508
S11300E0002B03D00749084800E000BF0748036815
S11300F0002B00D110BD064B002BFBD09847F9E72D
S113010000000000B40900207CA700007CA70000C8
S11301100000000010B5024B9847024B984710BDF1
S11301200D090000BD17000030B587B0162200216C
S113013068462B4B98472B4C2368987EDD6A162320
S11301406A46AA21A84723686A4600215156090233
S113015052780A431A806A46022151560902D2781B
S11301600A435A806A4604215156090252790A43C5
S11301709A806A4691790902D2790A43DA806A46FA
S1130180117A0902527A0A431A816A46917A09025B
S1130190D27A0A435A816A460C2151560902527B8B
S11301A00A439A816A460E2151560902D27B0A43B8
S11301B0DA816A46102151560902527C0A431A8296
S11301C06A46122151560902D27C0A435A826A466F
S11301D0142151560902527D0A439A8207B030BD58
S11301E021520000CC090020F0B583B003006A4618
S11301F0D51D0027D771124E3060807EDC6A012342
S11302002A00D021A047040033682A78DA75012235
S11302101A629F84DF84987EDF6A01232A00D12139
S1130220B8470419E4B231682B780F221A400A76D1
S11302301B094B76034B9847201840B203B0F0BD1E
S1130240CC0900202901000070B50D4B1D686C8994
S1130250041B28894443E41303D11423E85E0028D3
S11302600CD01223E85EC0021423E95E0919054B81
S113027098470019E8610830001100B270BDC0460B
S1130280CC090020C52A0000F0B5C64600B580465A
S1130290294B1D68EB69294A944663441F005F4358
S11302A03F130E22AC5E7C430222AE5E5E432421E9
S11302B06A5E0420295E594349130C202B5E5F4378
S11302C03F14C9190231891080231B029C466144E2
S11302D0EB885943C90BE312F6129B1900202C5EDC
S11302E0A4001B19934002339B104046C01A144BC0
S11302F013414343002B16DB0020002910D0580083
S1130300104B984703125B430F4A5A430F4B434326
S11303101B1412149B180E4A944663441B11C018F4
S113032004BC9046F0BD00200029F9D01800054B0C
S113033098474000E6E7C046CC09002060F0FFFF84
S113034050C30000B1290000DE0B000043E3FFFFAF
S1130350CF0E000070B582B001AC0023237063702F
S11303606B46DA1C2E231370104D2B68987E9E6A00
S11303700123F421B04706002B681B6B0520984726
S11303802B68987EDD6A02232200F621A847801993
S1130390C0B20023002805D101AA00201056000293
S11303A05378034398B202B070BDC046CC09002014
S11303B0F0B5D6464F464646C0B582B001AA0023E2
S11303C01370537093706A46D370444B1B68444A4D
S11303D0596A91420AD026215A5E0020002A49D047
S11303E002B01CBC90469946A246F0BD03240027E7
S11303F03A4D0326A84603E0013CE4B2002C34D075
S113040029686B46DA1C8B8C9B0134331370887E0D
S11304108B6A99460123F421C84781462B6824211D
S11304205A5E3000904002301B6B98472B68987ED0
S1130430DB6A9A46330001AAF621D0474844C0B289
S11304400028D9D143461A6801A90B781B044878BF
S11304500002034389780B432421505E0821091AC2
S1130460CB4001211162FF18C6E7032138001D4B60
S11304709847B5E76A460332998C89013431117083
S1130480987E9C6A0123F421A0470500134C23683D
S113049024215A5E0320904002301B6B9847236846
S11304A0987EDC6A032301AAF621A0474019C3B24F
S11304B00020002B94D1094B196801AB1878000473
S11304C05A78120210439B7818432423CA5E0823E7
S11304D09B1AD84001230B6282E7C046CC09002056
S11304E003000100B129000010B5074B9847074BE2
S11304F0984780B2064B9847064A074B074CA047DB
S1130500074B984710BDC046550300004902000040
S1130510CD4E00009A9999999999B93FF9420000F2
S11305206550000010B5024B9847024B984710BD28
S1130530B10300008902000070B50400104B984715
S1130540060020000F4B98470F49104B9847104B5B
S1130550984702000B0000200E490F4CA0470F4A99
S11305600F4B104CA04704000D0030000E4B984771
S113057022002B000D4CA0470D4B984770BDC04680
S113058025050000E5330000203BBD37A531000000
S1130590C14F00000000F03FF947000085EB51B85F
S11305A01E0515C0DD170000514F0000F942000080
S11305B0592D000010B50B1C011C181C0A4B984740
S11305C00A4B98470A4A0B4B0B4CA04702000B00FE
S11305D000200A490A4CA04700220A4B0A4CA047B3
S11305E00A4B984710BDC046152F0000C14F0000AC
S11305F0EBE2361AC05BC83FDD1700000000F03F95
S1130600F947000040A5E540F9420000592D0000DB
S1130610B0B584B000AF5C1CE4B2E01DC008C000FB
S11306206D46281A85466D462970012C0BD9110098
S1130630681C013BDBB20133D2180B780370013123
S113064001309142F9D10748838BBB80BC60064BD3
S1130650FB80FD60391D054B984740B2BD4604B090
S1130660B0BDC046500A00200080FFFF11100000FA
S113067010B50248024CA04740B210BD500A0020F9
S11306807D0A000010B580B2014B984710BDC046EA
S11306909D090000054B064A9A62064ADA627722EF
S11306A09A76054A1A6300207047C046100A002053
S11306B011060000710600008506000010B5054B08
S11306C098470548054B98470400054B984700197F
S11306D0C0B210BD95060000100A0020E901000018
S11306E029010000FEE70000F8B52A4A2A4B9A4285
S11306F011D01A00294B9A420DD2294A03339B1A6E
S11307009B0801339B000022234822498C588450C3
S113071004329A42FAD1234A234B9A420AD2D3434F
S113072021495B1803218B4304339B18002102C227
S11307309342FCD11D4AFF211D4B8B439360FD392D
S113074090235B001B4AD1501B4AD3780325AB434B
S113075002242343D370D3780C27BB4308263343A6
S1130760D370164B987B3022904320221043987309
S1130770997BB943314399739A7BAA4322439A7371
S11307800F4A536880210B4353600E4B98470E4B1E
S11307909847FEE77CA7000000000020B009002075
S11307A004000020B0090020980A002000ED00E0B9
S11307B0000000000070004100500041004800416A
S11307C000400041D95100000516000070B5124BDD
S11307D04820195C042291431954195C0125A9434A
S11307E001242143C9B219541438195C0F26B143AA
S11307F00D3E3143195449215E5C96435E545A5C64
S1130800AA432243D2B25A541A5C3A390A401131EB
S11308100A431A5470BDC04600440041054A136A95
S113082004210B431362044B044A5A80044A5A803D
S11308307047C04600040040000C00401440000013
S11308401343000010B5044B984704490448054B72
S11308509847054B984710BD1D080000000800424A
S1130860500A00201D0A0000CD07000030B50E4BD1
S11308705622995C0125A94301242143C9B2995404
S11308803B20195C473A91430D3A114319545721BF
S11308905A5CAA432243D2B25A541A5C48390A40D9
S11308A011310A431A5430BD00440041044A136A0A
S11308B020210B431362034A034B5A807047C046FE
S11308C00004004017400000000C004010B5054B28
S11308D09847002204490548054B9847054B98471B
S11308E010BDC046AD08000000140042440A0020B8
S11308F0110C00006D08000010B50248024B984727
S113090010BDC04610E000E08909000070B5164B28
S11309109847C022D205802000025060134B14492E
S113092099621449996250604F215C5C04252C4300
S11309305C549061585C0124A04358548021C9053B
S1130940942011500C381150A82299500A499950FA
S1130950DE215A5CA2435A54084B9847084B9847E7
S1130960084B984770BDC046D50C000000440041B8
S113097000800240000002C0004000C045080000A2
S1130980CD080000F908000010B5024B1860024BB6
S1130990984710BDD00900209D15000010B5044BE8
S11309A01C68044B984701002000034B984710BD76
S11309B0D0090020CD0C0000B115000010B584B0A2
S11309C0140001AB1438828B1A800294054A5A80B1
S11309D003911900044B9847002800D1200004B06B
S11309E010BDC0460080FFFF1110000010B584B098
S11309F0140001AB1438828B1A800294054A5A8081
S1130A0003911900044B9847002800D1200004B03A
S1130A1010BDC0460180FFFF1110000070B5040036
S1130A200D00431E9841C0B25E220749074B984708
S1130A3029002000064B9847002803D1054BA361E9
S1130A40054B636170BDC0466CA00000890C0000BA
S1130A505D0F0000ED090000BD09000010B5014B59
S1130A60984710BD8D0F00008905890D8023DB0098
S1130A701A400A43828310007047000070B586B0A4
S1130A80040016001D006B46D971073303A9828B3D
S1130A900A8001224A6000224A808B60074B9847F3
S1130AA0002801D006B070BD03A9054B4B808E60B1
S1130AB04D602000014B9847F4E7C0461110000038
S1130AC00180FFFF70B506000C00150000280DD052
S1130AD00800431E9841C0B234220549054B98478B
S1130AE033682A0021003000984770BD0020F3E7E6
S1130AF088A00000890C000070B506000C001500E9
S1130B0000280DD00800431E9841C0B23D2205497B
S1130B10054B984773682A0021003000984770BD40
S1130B200020F3E788A00000890C0000F8B5CE4649
S1130B30474680B504000F009046002826D00029BF
S1130B4026D01000431E9841F1221249124B9847B7
S1130B500834124D2000A8470028FBD00026104B73
S1130B6099460E4DB95D2000C8472000A8470028CB
S1130B70FBD001364645F5D30A4D2000A84700288E
S1130B80FBD030000CBC90469946F8BD0020DBE752
S1130B900020D9E79CA00000890C00003D0F000054
S1130BA02D0F0000470F0000F8B5CE46474680B52C
S1130BB004000F00904600281DD000291DD010000D
S1130BC0431E9841862252000D490E4B9847002639
S1130BD008340D4D0D4B99462000A8470028FBD042
S1130BE02000C847B85501364645F5D330000CBC43
S1130BF090469946F8BD0020E4E70020E2E7C046AD
S1130C009CA00000890C0000510F0000350F00006B
S1130C1070B505000C00002813D00800431E98414D
S1130C20C0B234220849094B9847280008302100F3
S1130C30074B9847002803D1064B6B60064B2B608B
S1130C4070BD0020EDE7C0469CA00000890C0000A8
S1130C50ED0E0000A90B00002D0B000010B50400E0
S1130C60431E9841C0B253220449054B98472000C3
S1130C700830044B9847002010BDC0469CA00000DB
S1130C80890C0000190F0000002800D100BE704735
S1130C900300064A1268002A04D0044A1068C318E4
S1130CA0136070470249014A1160F6E7D409002035
S1130CB0982A002001204042704780239B014B600A
S1130CC0002070470120704700207047FA235B0121
S1130CD05843704710B5064B5A685A60054B9847FD
S1130CE0054B9847054B9847FF20054B984710BD87
S1130CF000400041250D0000491500008D1500003D
S1130D00050D0000C3070AD5054B802252009A60E6
S1130D10832252025A601A005378DB09FCD17047CF
S1130D20000C0040064B1A7AD2B21A725A7AD2B226
S1130D305A729A7AD2B29A72DA7AD2B2DA72704764
S1130D400004004010B5084B9C466044800AC0B2C1
S1130D50002807D0E622920004490020044B98475B
S1130D600120404210BDC04600F8FFBDD0A00000E5
S1130D70890C000070B505000C000800314B984741
S1130D80C0B2E369DB0721D443001B18DB002E4A01
S1130D90D31859681C2319400322E3691A42FCD171
S1130DA023689B070BD523680222934323600132F7
S1130DB0E3691A42FCD10222E3691A42FCD10123FD
S1130DC00B4323600322E3691A42FCD10122E36945
S1130DD01A42FCD143001B18DB001B4AD318596884
S1130DE021600322E3691A42FCD143001B18DB0093
S1130DF0154AD3189B6863600422E3691A42FCD144
S1130E0043001B18DB00104AD318DB68E360890138
S1130E10890FA981636A0D4E1E4001238B429B41B9
S1130E205B429B03334363620422E3691A42FCD1AD
S1130E3043001818C000044B1818438AEB810020A3
S1130E4070BDC046450D0000B8A00000FFBFFFFF05
S1130E5010B504001F4BC3189B0ADBB2032B04D04C
S1130E601D4A1E4900201E4B9847E369DB0718D42E
S1130E700322E3691A42FCD123689B070BD523683C
S1130E800222934323600132E3691A42FCD1022215
S1130E90E3691A42FCD1052323600322E3691A4261
S1130EA0FCD10122E3691A42FCD10E4B23600322D8
S1130EB0E3691A42FCD1C0239B0263600722E36901
S1130EC01A42FCD1084BA3810023A3733022A354FC
S1130ED0002010BD00F8FFBD3A020000D0A00000C1
S1130EE0890C00000400104004C5FFFF70B5050024
S1130EF00C00431E9841C0B2B4220449044B9847E5
S1130F002C602000034B984770BDC046D0A0000061
S1130F10890C0000510E00000268136802210B4383
S1130F2013600131D3691942FCD17047036889B257
S1130F30198570470368188DC0B270470368187E1E
S1130F400123184070470368187E8007C00F70475C
S1130F500368187E4007C00F7047000070B5040096
S1130F600D00431E9841C0B2044A0549054B9847F9
S1130F70256129002000044B984770BD0705000037
S1130F80D0A00000890C0000750D000070B50400AD
S1130F901A4D431E9841C0B2194A2900194EB04750
S1130FA024692000431E9841C0B2174A2900B04763
S1130FB023680222134323600132E3691A42FCD1FD
S1130FC004250422032010261049E3691A42FCD1A7
S1130FD0638B1B090340012B0AD001390029F4D18A
S1130FE0013D002D06D06683E3691A42FCD1EBE78C
S1130FF0002070BD06204042FBE7C046D0A00000A0
S113100024050000890C0000F4050000FFFF000027
S1131010F0B5DE4657464E464546E0B583B005007A
S1131020884604690600731E9E41F3B20193B44FCF
S1131030B44A39001800B44EB0472869431E984199
S1131040C0B2B822D2003900B0474046431E98418E
S1131050C0B2AE4A3900B0476B88DB0500D524E244
S113106043465A8880235B001A4341464A802A003B
S1131070C1C9C1C26268134363600422E3691A42AE
S1131080FCD12F693B689946A14A9D4901989E4B22
S113109098476B68012B5AD07B689E4A13407B604B
S11310A00422FB691A42FCD12B885A055CD56A8854
S11310B0D20704D56A888021C9000A436A805B008C
S11310C0954919400422FB691A42FCD17B6A8022AB
S11310D0D2011A4080231B0213431943796204226C
S11310E0FB691A42FCD129690B7EDBB28B4A0320CF
S11310F0184204D10B7EDBB2013A002AF8D13E68D3
S11311000421FA691142FCD17A8B92B2D90700D436
S1131110A0E093073ED501233B766B8880214901EB
S11311200B436B806B887E490B406B80012003006E
S113113013405842584105386B88794A13406B80F4
S113114003B03CBC90469946A246AB46F0BD4B4624
S11311501B01A1D57A688023DB0213437B60042240
S1131160FB691A42FCD19FE76A885B00FF210B40B0
S1131170FE39114019430422FB691A42FCD17B6AEF
S11311808022D20113400B437B620422FB691A4282
S1131190FCD1A8E753071BD46B885B0535D52B8896
S11311A0DB09062119400422FB691A42FCD17B6A3F
S11311B08022D2011340F12213430B437B62ED3AA8
S11311C0FB691A42FCD16B88564A13406B8066E077
S11311D06B68002B04DD6B888022520113436B8003
S11311E06B881BB2002B06DB6B884D4A13406B8067
S11311F002204042A0E77A68C0239B0213437B602D
S11312000423FA691342FCD1EEE76B68002B12D178
S11312106B881BB2002B04DB6B88414A13406B8044
S11312203DE07A68C0239B0213437B600422FB6980
S11312301A42FCD1F0E7AB681A782823FA54042246
S1131240FB691A42FCD1AB680133AB606B68013BAC
S11312506B6024E09B0722D56B68002B40D05207BB
S11312603ED43601F60F013B6B60002B00D01FE12A
S1131270002E00D122E16B881BB2002B1DDB6B8892
S1131280274A13406B80A9684B1CAB600422FB699E
S11312901A42FCD12823FB5C0B7002233B76002608
S11312A080235B009A4603210422FF3B9C460133C2
S11312B0994626339B460196C2E07B68184A134040
S11312C07B600632FF32FB691A42FCD17A68C02384
S11312D09B0213437B600422FB691A42FCD1CEE7D4
S11312E002233B760220404226E76268C0239B0229
S11312F0134363600422E3691A42FCD1B5E0C0469B
S1131300D0A00000BF050000890C0000C10500004A
S113131094050000FFFFFBFFFE070000FFFF000035
S1131320FFFEFFFFFFFBFFFF02421BD16B885B0543
S113133035D52B88DB0906201840E3691A42FCD115
S1131340636A8026F6013340F12633430343636224
S1131350E3691A42FCD16B88784803406B80002310
S113136001936DE06B68002B04DD6B8880204001E5
S113137003436B806B881BB2002B07DB6B887048C0
S113138003406B8002235B42019359E06068C023F1
S11313909B0203436360E3691A42FCD1EEE76B6886
S11313A0002B13D16B881BB2002B06DB6B886448BF
S11313B003406B800023019342E06068C0239B02DA
S11313C003436360E3691A42FCD1EFE7AB681B781F
S11313D058462354E3691A42FCD1AB680133AB602D
S11313E06B68013B6B600023019329E000260196A2
S11313F04E461E4224D06B68002B4DD002424BD186
S1131400FF0E60460740013B6B60002B00D082E07A
S1131410002F00D185E06B881BB2002B2CDB6B887E
S1131420474803406B80A868431CAB60E3691A42D9
S1131430FCD15B46E35C03704B46237600230193A7
S11314406B88504603422DD02E69337EDBB23D4873
S1131450194241D1337EDBB201380028F8D143462A
S11314605B881BB2002B00DA3FE76B88344A1340D9
S11314706B800520404263E6636831480340636043
S1131480E3691A42FCD16068C0239B020343636092
S1131490E3691A42FCD1C2E74B46237602235B423E
S11314A00193CDE7019E30004AE60620404247E61C
S11314B0012B00D0E7E6002E00D1E4E67A68802311
S11314C0DB0213437B600422FB691A42FCD16B6884
S11314D0002B00D1CFE6D6E62768E0690242FCD1B2
S11314E0608B80B266461E4200D17FE74B460342C2
S11314F000D119E726766B888026760133436B800A
S11315006B880F4E33406B80634618404642464119
S1131510731F019394E7012B00D084E7002F00D1BF
S113152081E760688023DB0203436360E3691A4256
S1131530FCD16B68002B00D16DE774E7FFFBFFFF64
S1131540FFFEFFFFFFFF00000E4B196A1A6A0E48E8
S11315500140920F9207022002430A431A629A69D9
S113156002439A611A7F1F210A401A771900082240
S1131570CB681A42FCD0034A136A80210B431362DE
S11315807047C046000800400000FF0F024A9369FC
S113159002218B439361704700080040024B034AC9
S11315A05A6005221A60704710E000E0FFFFFF0058
S11315B070B50B0E5E1EF6B2002B13D034000E4A2B
S11315C00E4D802040025560956013680342FCD0A4
S11315D0013CE4B2FF2CF6D13306F61A084B9C46C4
S11315E061447118044B59609960190080225202B9
S11315F00B681342FCD070BD10E000E0FFFFFF0059
S1131600010000FFF0B585B0244B9847244C80229C
S1131610120177212000234B98472000224B984742
S11316202248234B9847234B9847002830D1224D1A
S1131630224F234EFA20C000A847B847041CB047E5
S113164001902048204B9847029001981F4B9847DF
S1131650011C1F481F4B98470390201C1E4B9847A2
S113166002000B001D481E4CA04701991D48A047CD
S113167002991D48A04703991C48A0471C480C4BDD
S113168098478021C9059C23C022D205D150D1E7B7
S11316901848074B9847002005B0F0BD150100001D
S11316A0500A0020690A00005D0A0000ECA0000056
S11316B079530000BD0600009D090000E904000004
S11316C0250500003603000039050000E53300005D
S11316D080E6C547B5050000C14F00006CA10000BD
S11316E0B55200008CA10000A0A10000C0A1000020
S11316F0D8A100003CA1000010B50B00002809D1BE
S113170011001800054B9847002800DB10BD01208C
S11317104042FBE701204042F8E7C046751700004D
S113172010B50B000138022809D811001800054B28
S11317309847002800DB10BD01204042FBE7012050
S11317404042F8E79917000070B50600064D2B6873
S113175098680021054CA0472B6858680021A047D1
S1131760034B1E6070BDC046040000208D53000072
S1131770D809002010B50400054B1868002804D0CF
S11317808AB22100034B984710BD0020FCE7C046F5
S1131790D8090020F90A000010B50400054B1868A8
S11317A0002804D08AB22100034B984710BD0020C2
S11317B0FCE7C046D8090020C50A000010B5044C57
S11317C02000044B98472000034B984710BDC046A7
S11317D0440A00205D0C000049170000F0B557468C
S11317E04E46DE464546E0B58FB01D0006000F00AC
S11317F0140000F09FF9C74B009001919A461B78A2
S11318005BB2994601333ED022002B002000290010
S113181003F008FB8346002835D132003B0030003A
S1131820390003F0FFFA00220390002800D0B6E04C
S113183000233000390001F041FA00282CD00022A6
S113184000232000290001F039FA8346002800D142
S113185077E004AB9846012342460493AE4B5360B1
S11318604346039A1C615D611A629E60DF604246D2
S1131870002300249361D4614B46002B4DD00023F8
S1131880A64C00930194009801990FB03CBC90467B
S11318909946A246AB46F0BD0098019900F064FF5A
S11318A08146002800D19BE0009801990022002382
S11318B001F004FA0028E6D03000390000F054FFAB
S11318C00028E0D02000290000F04EFF0028DAD0E4
S11318D004AB98460423424604938F4B146155612C
S11318E0536000230024136200239361D4615346A0
S11318F01B789660D7605BB2022B04D0404600F0A0
S11319003DFF00280ED103F061FC2223036009E0AF
S11319104246002300249361D461404600F02EFF28
S1131920002837D043461B6A002B04D003F04EFC3A
S113193043461B6A03604346DC699B690093019438
S1131940A1E72000290000F00FFF00289BD000220F
S113195000232000290001F0B7F9002800D192E704
S113196004AB98460123424604936B4B53604346B1
S11319705A469E60DF601A621C615D6153461B78A3
S11319805BB2002BC4D00020424665499061D1610E
S1131990022BC2D103F01AFC21230360C2E7002307
S11319A02000290001F08AF9002800D16BE704AB7C
S11319B09846012342460493574B4146536043469D
S11319C05A461A6200229E60DF601C615D61534BBF
S11319D08A61CB61009201934B46022B9DD152E761
S11319E03000390000F0C0FE002800D15CE7200080
S11319F0290000F0B9FE002800D155E700980199AC
S1131A000B00020003F00EFA04AB9846002861D1E3
S1131A10032342460493404B1062536053461B78A1
S1131A209660D7605BB2146155619946002B2FD143
S1131A30E02241463B4B12068A61CB613000002212
S1131A400023390001F040F9002800D156E70022B4
S1131A50354B2000290002F04FFC04000D0000F07B
S1131A6095FE02000B002000290001F027F9002850
S1131A7005D1E0222D4B120641468A61CB615346C3
S1131A801B785BB299464B46022B00D036E73AE707
S1131A9000224146264B30008A61CB61002200239C
S1131AA0390001F011F90028EDD000221E4B20006E
S1131AB0290002F021FC04000D0000F067FE020082
S1131AC00B002000290001F0F9F80028D7D10022EA
S1131AD0134BD1E70123424604930F4B5360434613
S1131AE04A461C615D611A629E60DF6000245346B1
S1131AF01C57002C00D10BE7002300221900100012
S1131B0001F0C6FF43469861D961022C00D141E738
S1131B1003E7C046000000200CA200000000F03FD4
S1131B200000F0FFFFFFEF470000E03FFFFFEFC7BB
S1131B300000F07FF0B557464E464546DE461C0091
S1131B401300E0B5650091B06D080093019407009F
S1131B500E0080468946A2462B4331D0674B740061
S1131B6064089C4227DC24D09D4224DC634B9D42C4
S1131B7000D181E000239B464B46002B00DA7FE036
S1131B80002A2CD15D4B9D4200D197E05C4B9D42D5
S1131B9066D08023DB059A4500D1B9E3594B9A45B9
S1131BA01DD14B46002B1ADB3800310000F0F8FC45
S1131BB008E000280DD0544B9C46644427430AD1C6
S1131BC000204F4911B03CBC90469946A246AB4612
S1131BD0F0BDA542CADD4D4800F0D2FDF2E7380061
S1131BE0310000F0BDFD4346002B1DD1002C04D074
S1131BF0434AB3009B08934216D15346002B00DAA4
S1131C00C5E34B46002BDDDA3F4B9C465B46644400
S1131C101C4301D100F053FC5B46012BD2D180243C
S1131C2024060B191900CDE7F30F013B98465B46D8
S1131C304246134357D0364B9D4277DD354B9D4288
S1131C4000DCB1E3344B9C4200DCA8E35346002B98
S1131C5043DD324A324B1000190002F04DFBB1E76C
S1131C60534638003100002BACDA3A003300002030
S1131C70234901F00DFFA5E7002A00D17AE79AE78E
S1131C80284B9D422CDC244B9D4200DC78E72649FE
S1131C902B158C466344142B01DC00F0F3FB342138
S1131CA0CB1A0099D94008009840824200D067E7D7
S1131CB00123194001335B1A9B4661E7124BE31879
S1131CC01F4300D17CE7144B9C4200DC27E30098BF
S1131CD001995346002B00DB74E70020002171E7D3
S1131CE002239B464CE73A0033003800310002F0EF
S1131CF083FD02000B0001F0CBFE63E70000F07FE0
S1131D000000F03F0000E03F000010C0BCA1000054
S1131D100000E0410000F043FFFFEF3F9C750088A6
S1131D203CE4377EFFFF3F4301FCFFFFE94B002209
S1131D309C4206DC0022E84B02F0DEFA35220C005D
S1131D405242E64D2315AC46634499462403E44DC0
S1131D50E44B240B914425439C4209DDE24B9C4215
S1131D6000DCB6E301239C46E04BE1449C46654419
S1131D70002300240022089309940C930D9400245A
S1131D80D74B06920793069A079B29000A900B915A
S1131D9002F032FD069A079B06000F000A980B9981
S1131DA001F066FB02000B000020CD4901F070FE3B
S1131DB00A00010013000E910F9202003900300056
S1131DC002F09AFA0A00010080200491059213009F
S1131DD000226910802500038446029203930022A6
S1131DE0AD050D4365442B190298039914001D0099
S1131DF002F082FA02000B003000390002F0FCFC11
S1131E00069A079B06000F002000290002F0F4FC4C
S1131E1002000B000A980B9902F0EEFC029A039B55
S1131E2002F06AFA02000B003000390002F0E4FC10
S1131E300E9A0F9B02F060FA049D059E069007918E
S1131E402A0033002800310002F056FA06000F0081
S1131E50A74AA84B02F050FAA74AA84B01F008FB86
S1131E6032003B0002F048FAA54AA64B01F000FB01
S1131E7032003B0002F040FAA34AA44B01F0F8FA06
S1131E8032003B0002F038FAA14AA24B01F0F0FA0A
S1131E9032003B0002F030FA9F4AA04B01F0E8FA0E
S1131EA0320004000D003B003000390002F024FA37
S1131EB002000B002000290002F01EFA029E039F7C
S1131EC004000D000498059932003B0001F0D0FA9B
S1131ED0069A079B02F010FA22002B0001F0C8FAC0
S1131EE032000A900B913B003000390002960397B0
S1131EF002F002FA00228A4B04000D0001F0B8FA45
S1131F000A9A0B9B01F0B4FA00260F0032000B0072
S1131F100298039902F0F0F9002202900391804B99
S1131F203000390002F068FC22002B0002F064FC4F
S1131F3002000B000A980B9902F05EFC049A059BC0
S1131F4002F0DAF9320004000D00069807993B000C
S1131F5002F0D2F902000B002000290001F088FAF7
S1131F6004000D0002000B000298039901F080FAAE
S1131F700026E0226B4B120630000F0002F0BCF981
S1131F80029A039B049005913000390002F034FC5E
S1131F9002000B002000290002F02EFC624A614B73
S1131FA002F0AAF9614A04000D00614B30003900C7
S1131FB002F0A2F902000B002000290001F058FAF7
S1131FC00C9A0D9B01F054FA060048460F0002F0EB
S1131FD07DFF04000D000498059932003B0001F0D8
S1131FE047FA089A099B01F043FA22002B0001F0FA
S1131FF03FFA002022002B000290039102F0FCFB28
S1132000089A099B02F0F8FB049A059B02F0F4FB82
S113201002000B003000390002F0EEFB0490059141
S11320205B464246013B134300D1ABE100232C4CF9
S1132030069307940098019900260B0032000F00C4
S113204002F0DAFB029A039B02F056F9009A019B14
S113205004000D000498059902F04EF902000B00EB
S11320602000290001F004FA04000D0002980399ED
S113207032003B000094019502F03EF902000B008F
S113208006000F002000290001F0F2F9294B04009A
S11320900D0002008B46994200DC4FE1264BCB1821
S11320A0034300D0E2E100980199244A244B01F053
S11320B0DFF93200029003913B002000290002F076
S11320C09BFB02000B000298039900F011FEAA4644
S11320D038E0C046FFFF0F000000404301FCFFFF53
S11320E00000F03F8E98030079B60B000000F0FF6B
S11320F0EF4E454A287ECA3F65DBC9934A86CD3FE9
S113210001411DA96074D13F4D268F515555D53FCE
S1132110FFAB6FDBB66DDB3F033333333333E33F66
S11321200000084009C7EE3FFD033ADCF5015B14EB
S1132130E02F3EBEFFFF8F40000070BFFE822B6584
S11321404715973C002800D090E1EC4A534694464A
S11321508022520311001B15634419410B00904661
S1132160E74A5B4494465C00640DE64D64442541B3
S11321701A00AA43110042461B031B0B13431422EB
S1132180141B234199465B460020002B00DAB0E182
S113219002000B003000390002F02EFB0B0002009D
S11321A006000F000098019901F062F94B461B05E7
S11321B00D00984600240022D34B2000290002F091
S11321C09BF83200029003913B002000290002F0AA
S11321D013FB02000B000098019902F00DFBCB4A9F
S11321E0CB4B02F089F8CB4A06000F00CA4B200003
S11321F0290002F081F802000B003000390001F0E0
S113220037F904000D0002000B000298039901F055
S11322102FF9029A039B06000F0002F0EDFA020068
S11322200B002000290002F0E7FA3200009001912F
S11322303B003000390002F05FF804000D00B74A9B
S1132240B74B02F059F8B74AB74B02F0D5FA22005F
S11322502B0002F051F8B54AB54B01F009F9220000
S11322602B0002F049F8B34AB34B02F0C5FA22003E
S11322702B0002F041F8B14AB14B01F0F9F8220009
S11322802B0002F039F802000B003000390002F094
S1132290B3FA04000D0002000B003000390002F014
S11322A02BF88023029003910022DB0520002900F3
S11322B002F0A2FA02000B000298039901F0E8FB75
S11322C0009A019B04000D003000390002F014F85C
S11322D0009A019B01F0CCF802000B0020002900B9
S11322E002F08AFA32003B0002F086FA02000B0088
S11322F00020944902F080FA43465B181A15002A1C
S113230000DC49E11900069A079B01F0F5FF59E446
S11323103A0033003800310001F0EEFF52E4534636
S1132320002B00DBD9E4009C019D802212062B00C7
S11323309446634420001900FFF744FC4B005B08FB
S11323409A46814B9A4500DCB1E0804B5B441A43CA
S11323500CD132003B0002F04FFA02000B0000984F
S1132360019900F0BBFC002800D1EEE6069807991D
S1132370774A784B01F0C0FF754A764B01F0BCFFF9
S1132380FFF720FC0023744C0693079452E60200E6
S11323900B0000206B4901F07BFBFFF732FC534636
S11323A0002B00DB99E454E46C4B9C42F7DD654B55
S11323B09C4200DD4AE40022624B02F01DFAC02276
S11323C0674BD20504000D0001F096FF654A060034
S11323D00F00654B2000290001F08EFF00220290BF
S11323E00391624B2000290001F086FF02000B00DC
S11323F05F48604902F000FA22002B0001F07CFFE4
S113240002000B0000205C4902F0F6F9220004905F
S113241005912B002000290001F06EFF02000B0043
S11324200498059901F068FF544A4D4B01F064FF8C
S113243002000B000298039902F0DEF902000B007F
S113244004000D003000390001F012F800203200C1
S11324503B000290039102F0CFF902000B00200030
S1132460290002F0C9F904900591D9E5444A454B85
S11324700698079901F040FF414A424B01F03CFFA6
S1132480FFF7A0FB002A01D0FFF7A9FB1432D31AEF
S11324902A001A41110099408D4201D0FFF776FBC2
S11324A001231A40DB189B1A9B46FFF76FFB00229F
S11324B0314B904691469A4500DC7BE645E60200A6
S11324C00B0002F099F902000B0001F0E1FAFFF7AA
S11324D079FB80232C4CDB05089309942B4B2C4C63
S11324E000220C930D9480242A4BE4020692079355
S11324F049E44B465B4299464AE6C04602FCFFFF6C
S113250001FCFFFFFFFF0F00432EE63FEF39FAFE09
S1132510422EE63F396CA80C615C20BED0A4BE728A
S11325206937663EF16BD2C541BDBB3E2CDE25AF9B
S11325306A56113F93BDBE166CC1663F3E55555554
S11325405555C53F0000F03FFFCB904000346F3F2E
S113255059F3F8C21F6EA5010000F0BFFEFFEF3F64
S11325604715F73F44DF5DF80BAE543E0000D03F03
S1132570555555555555D53F0000E03FFE822B6516
S11325809C7500883CE4377E03B8E23F06D0CF4315
S1132590EBFD4C3E0000F83F4A4600F099F9B2E6E4
S11325A06C4BF0B50A0046460D00D6464F4619005E
S11325B0C0B5040006002940994200D1A7E0002DCF
S11325C000DC81E02F1500D18EE0634B12039C46A2
S11325D08023120B5B0367441A43FB0768D47B1008
S11325E09C46E30F9B189B18802216210026002589
S11325F064009203A818984202DC85181B1AB618C6
S1132600E00F5B0001391B18640052080029F1D166
S113261000229246904680222020120609E0AB4216
S113262038D0E10FC9180138CB18640052080028CB
S113263018D041465118AB42F1DD8F18B846A9466F
S1132640002930DB5B1B8C42AD416D425B1B641A7D
S1132650E10FC918013892444D46CB186400520862
S11326600028E6D1234328D153465B083B49721026
S113267088464244F10702D5802109060B4361468E
S11326801E000F05BD18300029001CBC9046994659
S1132690A246F0BDA142C4D88F18B846002942DB37
S11326A099460023D3E7002F2FDB6F1CB946C9E7F7
S11326B0E10F52008A18640091E75346013335D084
S11326C0534601335B08D1E76B005B080343DAD060
S11326D00027002D32D1E20A153F6405002AFAD002
S11326E080235B031A4224D180200023400300E0AE
S11326F00B005200591C0242FAD02020401AFF1A43
S11327002300C3408C401A435FE7A9469AE72B0095
S11327100200290001F0F0FD32002B0000F0A8FEB9
S113272006000D00AFE7002FBFDAB9E7013600233A
S11327309CE70123002120205B42E0E72B000200FC
S1132740290002F059F802000B0001F0A1F906007B
S11327500D0098E70000F07F01FCFFFF0000E03F60
S113276049004B0819007047034B48009C46400839
S11327706044C00F7047C0460000108000207047BE
S1132780002001497047C0460000F87FF0B5C646F6
S113279000B5CB0F98464A4C4B005B0D1E1982B016
S11327A007000A00132E35DC002E57DB454B0400CE
S11327B033411F000F4007430D00002F24D05B0856
S11327C01C000C4020430027002807D0132E00D102
S11327D073E08022D202324199430A434346DE0029
S11327E0394B11009E1934687568380022002B009B
S11327F000F03EFE009001910098019922002B0008
S113280001F0FAFF04000D002000290002B004BC0E
S11328109046F0BD332E0CDD80230400DB000D0058
S11328209E42F1D102000B0000F022FE04000D00D4
S1132830EAE7264C0D00A446012463446442DC40CC
S1132840A446614604000142DED049080142C5D0D5
S11328508027FF051F4188430743BFE74B005B0800
S1132860034304000D00002BCED00B031B0B0343CA
S11328701A005B42134380221B0B120313404A0CC1
S11328805204134319004346DA000F4B9B181C688B
S11328905D6822002B0000F0EBFD00900191009890
S11328A0019922002B0001F0A7FF42464B005B0870
S11328B0D607334304001D00A6E780273F0688E7B8
S11328C001FCFFFFFFFF0F0010A20000EDFBFFFF64
S11328D04B0070B55B0D14000A00002B1AD14B009D
S11328E05B08034315D00022224B01F005FD224B67
S11328F00A009C4222DB4B005B0D363B1F4DE31864
S1132900AB4220DC002B0DDD1D4C1B0522401A437D
S1132910110070BD1B4DAB42F0D102000B0000F062
S1132920A7FDF6E71D00353518DA174B02009C4267
S11329300ADC0B001548164900F032F8134A144B10
S113294001F0DAFCE5E702000B001248124900F03E
S113295027F8104A104B01F0CFFCDAE7084C363365
S113296022401B051343190000220C4B01F0C4FC48
S1132970CFE7C04600005043B03CFFFFFE07000015
S1132980FFFF0F80FF07000050C3000059F3F8C297
S11329901F6EA5019C7500883CE4377E0000903CC6
S11329A030B54A00DB0FDB0752081A43110030BD73
S11329B0002243088B4274D303098B425FD3030A7A
S11329C08B4244D3030B8B4228D3030C8B420DD38D
S11329D0FF22090212BA030C8B4202D3121209021B
S11329E065D0030B8B4219D300E0090AC30B8B4259
S11329F001D3CB03C01A5241830B8B4201D38B0307
S1132A00C01A5241430B8B4201D34B03C01A5241AB
S1132A10030B8B4201D30B03C01A5241C30A8B42EE
S1132A2001D3CB02C01A5241830A8B4201D38B02D9
S1132A30C01A5241430A8B4201D34B02C01A52417D
S1132A40030A8B4201D30B02C01A5241CDD2C309EF
S1132A508B4201D3CB01C01A524183098B4201D36B
S1132A608B01C01A524143098B4201D34B01C01A56
S1132A70524103098B4201D30B01C01A5241C308CE
S1132A808B4201D3CB00C01A524183088B4201D33D
S1132A908B00C01A524143088B4201D34B00C01A29
S1132AA05241411A00D20146524110467047FFE795
S1132AB001B5002000F0F0F802BDC0460029F7D0AF
S1132AC076E7704703460B437FD4002243088B42CA
S1132AD074D303098B425FD3030A8B4244D3030BA1
S1132AE08B4228D3030C8B420DD3FF22090212BA66
S1132AF0030C8B4202D31212090265D0030B8B42E2
S1132B0019D300E0090AC30B8B4201D3CB03C01ACB
S1132B105241830B8B4201D38B03C01A5241430BA6
S1132B208B4201D34B03C01A5241030B8B4201D396
S1132B300B03C01A5241C30A8B4201D3CB02C01A01
S1132B405241830A8B4201D38B02C01A5241430A79
S1132B508B4201D34B02C01A5241030A8B4201D368
S1132B600B02C01A5241CDD2C3098B4201D3CB010F
S1132B70C01A524183098B4201D38B01C01A5241BE
S1132B8043098B4201D34B01C01A524103098B42C2
S1132B9001D30B01C01A5241C3088B4201D3CB00AD
S1132BA0C01A524183088B4201D38B00C01A524190
S1132BB043088B4201D34B00C01A5241411A00D240
S1132BC001465241104670475DE0CA0F00D04942A9
S1132BD0031000D34042534000229C4603098B4219
S1132BE02DD3030A8B4212D3FC22890112BA030AA1
S1132BF08B420CD3890192118B4208D38901921123
S1132C008B4204D389013AD0921100E08909C309A7
S1132C108B4201D3CB01C01A524183098B4201D3A9
S1132C208B01C01A524143098B4201D34B01C01A94
S1132C30524103098B4201D30B01C01A5241C3080C
S1132C408B4201D3CB00C01A524183088B4201D37B
S1132C508B00C01A5241D9D243088B4201D34B0096
S1132C60C01A5241411A00D20146634652415B10D8
S1132C70104601D34042002B00D5494270476346B9
S1132C805B1000D3404201B5002000F005F802BDFE
S1132C900029F8D016E770477047C0468446101CD8
S1132CA062468C46191C634600E0C0461FB501F01D
S1132CB0C1FA002801D40021C8421FBD10B501F09B
S1132CC01BFA4042013010BD10B501F0B3FA0028E0
S1132CD001DB002010BD012010BDC04610B501F07D
S1132CE0A9FA002801DD002010BD012010BDC04656
S1132CF010B501F03BFA002801DC002010BD0120D2
S1132D0010BDC04610B501F031FA002801DA0020E8
S1132D1010BD012010BDC046002B11D1002A0FD1D7
S1132D20002900D1002802D00021C943081C07B49F
S1132D30024802A14018029003BDC0465DFFFFFF98
S1132D4003B4684601B5029800F024F8019B9E463E
S1132D5002B00CBC7047C04670B500220C4B040096
S1132D600D00FFF7CFFF002804D12000290002F056
S1132D7079F870BD064B00222000290001F03CFDCB
S1132D8002F070F880231B069C466044F1E7C046BD
S1132D900000E041F0B557464E464546DE46E0B5F4
S1132DA0040083B00D00924699468B422FD82CD054
S1132DB04946504602F0FEF929000600200002F0C0
S1132DC0F9F9331A9846203B9B4600D574E05346E4
S1132DD05A4693401F005346424693401E00AF425A
S1132DE029D826D05B46A41BBD41002B00DA79E02C
S1132DF0002200230092019301235A469340019339
S1132E00012342469340009319E08242D0D9002224
S1132E100023009201930C9B002B01D01C605D6089
S1132E200098019903B03CBC90469946A246AB4633
S1132E30F0BDA342D6D90022002300920193434659
S1132E40002BE8D0FB0772081A4346467B080EE0C5
S1132E50AB4201D1A2420CD8A41A9D4101202419ED
S1132E606D410021013E24184D41002E06D0AB4295
S1132E70EED9013E24196D41002EF8D15B4600982D
S1132E80019900196941002B22DB2B005A46D340DB
S1132E902A004446E2401C005B461500002B2CDB54
S1132EA026009E40330026004746BE403200801A6A
S1132EB0994100900191AEE7424620239B1A524665
S1132EC0DA40414613004A468A4017001F4382E70E
S1132ED0424620239B1A2A0046469A402300F34088
S1132EE01343D5E74246202300219B1A0022009178
S1132EF001920122DA40019282E742462023260011
S1132F009B1ADE402F00B446974066463B0033438D
S1132F10C9E7C046F0B557464E46DE464546E0B5DD
S1132F2044024300C60F83B00F1C640A1B0EB24652
S1132F3053D0FF2B27D08022E400D20414437F22F5
S1132F40524290469844002399469B467D0278005D
S1132F50FB0F6D0A000E009324D0FF2846D0802377
S1132F600021ED00DB041D437F384746381A4F46E5
S1132F700F43BF00B9463300009A874F53404A4677
S1132F80BA5801939746002C4ED108239946F7333B
S1132F909846FD3B9B467D027800FB0F6D0A000EB0
S1132FA00093DAD1002D26D1002001213300009AAC
S1132FB07A4F53404246101A4A460A439200BA587E
S1132FC01D009746009B2C009A468B465B46022BBD
S1132FD031D15346FF21002438E0002C17D10423BB
S1132FE099460023984601339B46AFE7FF20002D06
S1132FF00BD10221DAE7280002F0BEF8431F9D40FE
S113300076235B42181A0021AFE70321ADE72000C5
S113301002F0B2F8431F9C4076235B421B1A984689
S1133020002399469B4691E70C239946F33398462F
S1133030FC3B9B468AE7032B00D1A5E05546012BB8
S113304000D081E00123002100242B406402C90543
S1133050600ADB070843184303B03CBC904699461A
S1133060A246AB46F0BD80240023E403FF21EDE734
S1133070FF210024EAE70123591A1B2966DD019A7E
S1133080134000210024E1E78023DB031C4238D0F5
S11330901D4251D01C436402640A3300FF21D5E76A
S11330A063016C01A3423BD21B2600210138012598
S11330B01F0049005B00002F01DB9C4201D81B1B51
S11330C02943013E002EF3D11C00631E9C410C4396
S11330D001007F310029CEDD630704D00F23234094
S11330E0042B00D00434230103D501002C4B803180
S11330F01C40FE290DDD0123019AFF211340002409
S1133100A4E78023DB031C436402640A3300FF2129
S11331109CE70123019AA401640AC9B2134095E70C
S11331201B1B1A260121C2E7009B8B469A460024EA
S11331304CE76302E5D500258024E4032C436402B4
S1133140640A009BFF2181E70195C1E72300202049
S1133150CB40411A8C40611E8C411C43630704D050
S11331600F232340042B00D00434630105D501232D
S1133170019A01211340002468E70123019AA40164
S1133180640A1340002161E78023DB031C436402CB
S1133190640A5346FF2159E720A2000060A2000000
S11331A0FFFFFFF7F8B557464E464546DE46E0B505
S11331B04702460088467F0A360EC40F002E47D0C9
S11331C0FF2E24D0FB008027FF041F4300239946D1
S11331D09A467F3E43465D025800DB0F6D0A000E9F
S11331E0984643D0FF283BD0EB0080250022ED0415
S11331F01D437F383618731C41469B464B4661403D
S113320013430F2B64D875489B00C3589F46002F67
S113321042D108239946063BFF269A46DAE74146FF
S1133220022A28D0032A00D1CEE0012A00D0ACE043
S1133230114000200022CCB24002D205400AE4072B
S1133240104320433CBC90469946A246AB46F8BD89
S1133250002F15D104239946033B00269A46B9E76B
S1133260FF200222002DC5D00322C3E7002D19D16F
S113327000200122BEE70124FF220C400020DBE7EE
S1133280380001F079FF7626431F9F4000237642E1
S1133290361A99469A469DE70C239946093BFF2620
S11332A09A4697E7280001F067FF431F9D40762365
S11332B05B42181A00229DE780200024C003FF22ED
S11332C0BAE73D005246ABE73D0021005246A7E76E
S11332D03B0C9C462A04120C2B0C140060466546D9
S11332E03F043F0C7C4342435D437B43270C9B18C4
S11332F0FF18BA4203D980235B029C466544240428
S11333003A04240C121993015C1EA3413F0C920E43
S11333107D191A43AD0115432B0104D501235E46E3
S11333206A081D40154332007F32002A25DD6B07F1
S113333004D00F232B40042B00D004352B0103D5DC
S11333403200274B80321D40FE2A94DC0124A80160
S1133350400AD2B20C406FE78020C003074207D076
S1133360054205D128434002400A4446FF2263E750
S113337038434002400AFF225EE70124A31A1B2BB4
S113338005DD0C400022002056E75E46CBE72A000C
S11333902020DA40C31A9D402B005D1EAB4113432D
S11333A05A0704D00F221A40042A00D004335A01C9
S11333B004D5012401220C4000203DE701249B0197
S11333C0580A0C40002237E780200124C003284318
S11333D04002400A0C40FF222EE7C046A0A2000093
S11333E0FFFFFFF710B5041E27D001F0C5FE9E2392
S11333F01B1A962B0ADC9622D21A94406402640AA1
S1133400DBB26402DB05600A184310BD992B17DC9C
S11334109922D21A002A27DD94402200134C14402A
S1133420510704D00F210A40042A00D00434620159
S113343012D4A401640ADBB2E3E700230024E0E72A
S1133440B9222100D21A91400A00511E8A41052155
S1133450091ACC401443DBE7044B1C409F23A4010E
S11334601B1A640ADBB2CCE72200D7E7FFFFFFFB9D
S1133470F8B54546DE4657464E460C03E0B54E00C9
S1133480C90F88460D00610A440F0C43C700190395
S11334905800DB0F9B464B0A510F0B43760D400D32
S11334A01900D200D84500D1AEE0351A002D00DC59
S11334B0F6E000280FD1134300D1DBE06B1E002B94
S11334C000D037E1BA1A9742BF41641A7F42E41B25
S11334D00126170024E0C64B9E424DD080231B04D6
S11334E01943382D00DD07E11F2D00DD38E12020D0
S11334F0431B9A460B0050468340994613004846A6
S1133500EB401843030050468240501E8241E9407C
S11335101A43BA1A611A9742A441170064420C1B59
S1133520230262D56402650A002D00D1DFE0280081
S113353001F022FE0300083B1F2B00DDD2E0202215
S11335403C00D21A9D40D4409F4025439E4200DD5A
S1133550C4E09E1B731C1F2B00DDF1E02022380009
S11335602900D21AD840914097402C000143781E7C
S11335708741DC4000260F437B0709D00F233B40E3
S1133580042B05D03B1DBB42BF417F42E4191F0001
S113359023022CD5964B01369E4200D19AE0454633
S11335A0944BFF081C406007760564020743240B14
S11335B0760D00212403230B0C0D8F4A24051C4394
S11335C01440330523435B00ED075B082B433800AD
S11335D019003CBC90469946A246AB46F8BD6446E9
S11335E0044300D111E2040067467B07C6D1454677
S11335F06007FF080743E4087D4B9E4230D0240354
S11336007605240B760DD4E7331A9A46002B78DD21
S1133610002831D076488642AED080200004014391
S11336205346382B00DCE9E00A43511E8A4100214D
S1133630D219BA42BF4109197C4217000C1923025E
S1133640D3D56B4B01369E4200D13AE10120694B40
S11336501C407B0807401F43E007074364088BE7CF
S113366023003B4300D1CBE1802212031443240303
S1133670240B9EE72E007FE70800104300D1B4E03E
S1133680581E002800D0DEE0BA18BA429B416418E4
S11336905B42E418170001262302A6D50226D5E7CB
S11336A0002D6ED1701C4005400D012800DCF9E0AE
S11336B0B81A844687428041E51A40422D1A2802EE
S11336C000D489E0D71BBA4292411C1B5242A51A6E
S11336D0D84629E74546002400276AE7454CF61AF0
S11336E02C4049E73D002838854000272EE7380064
S11336F001F042FD20301DE70A43511E8A4100219A
S113370007E7002B00D0F3E0701C43055B0D012B91
S113371000DCADE0364B984200D1D1E0BA18BA4291
S1133720BF4164187F42E419E7075208174364084D
S1133730060021E72E48854200D193E01D00D0E623
S113374029001F3EF140202B00D18DE04022D31AE6
S11337509D402F437D1EAF4100240F43002644E7C4
S11337602B000800203BD8400300202D00D17DE031
S11337704020451BA9400A43511E8A4100211A4397
S1133780C7E6002E50D01A4EB04257D080266B4266
S11337909946360434434B46382B00DDD6E01F2BC4
S11337A000DD35E12026F51A2600AE40B2463E0083
S11337B0DE40AC46350056462E436546AF407D1E7E
S11337C0AF41DC403743D71BBA4292410C1B5242F3
S11337D0A41A0600D846A3E6644667462C4300D0E4
S11337E0A2E600250026002706E71E00C4E6C04620
S11337F0FF070000FFFF7FFFFFFF0F801F2B63DC2D
S11338002020C31A080098409C4683465346100063
S1133810D84003005846184363469A40531E9A41C1
S113382053460243D94003E726003E4306D0EB4308
S11338309946002BC7D0944EB042ACD10C0017006F
S11338400600D84698E6904B9A450BD08246E7E6A8
S1133850002800D09EE01800104300D1E9E01C00CD
S11338601700D846884E87E6002572E7002182E7D4
S113387023003B43002E00D0ABE0002B00D1E7E057
S11338800B00134300D177E6BA18BA42BF4164185B
S11338907F42E419230200D4F2E07C4B17001C4061
S11338A0060069E620003843002ED1D100285BD100
S11338B01C00144300D1A8E01C001700D8465BE6A6
S11338C006000024002797E650460B002038C3402A
S11338D099465346202B00D195E0402350461B1AAD
S11338E099400A43511E8A414B4600211A439FE6E0
S11338F0002E30D126003E4367D0DB439A46002B8E
S11339001CD0614EB04260D05346382B00DD96E0A7
S11339101F2B00DD9FE02026F31A26009E409C46C4
S1133920B34653463E00DE4033005E461E436346C4
S11339309F407B1E9F415346DC403743BF1897424C
S1133940924164185242A418060078E627437C1E6C
S1133950A741002437E74C4EB04236D080265B4264
S113396036049A463443CFE71800104300D103E6E7
S1133970B81A84466745AD41E01A6D42401B050202
S113398000D42CE6D71BBA4292411C1B5242A41A03
S1133990D846F1E51800104300D163E7F80867073B
S11339A007438020E4080003044208D0DD080542F0
S11339B005D1D208590711430F002C00D8467B0FBC
S11339C0E4001C43FF00304ED6E50C00170006004F
S11339D0D2E5002B38D00B00134300D142E7F8089E
S11339E0670707438020E40800030442E7D0CB08BC
S11339F00342E4D1D208490711430F001C00DEE75B
S1133A0000270024D5E500216BE700250027F3E516
S1133A104E462500203EF5404B462E00202B2DD04F
S1133A204025ED1AAC4027437C1EA74100243743B0
S1133A30C9E6802400252403134E0027DCE5274330
S1133A407C1EA741002479E70C0017000E4E93E575
S1133A500C00170090E556462300203EF34099469B
S1133A605346202B0ED0402356469B1B9C40274395
S1133A707C1EA7414B4600241F435FE70024D2E786
S1133A801700B2E50024F2E7FF070000FFFF7FFF05
S1133A90F0B557464546DE464E46E0B54C000E03AB
S1133AA087B0834692461D008046360B640DCF0FC7
S1133AB0002C4FD06F4B9C4235D08023420F1B0407
S1133AC0F600134333439946C30098466A4B0026D5
S1133AD09C460023644403932B031B0B9B466B00FF
S1133AE0ED0F50465B0D01955ED0624A934253D070
S1133AF05A46D1008022400F120402430A439346DF
S1133B005246D1005C4A944600226344380068401F
S1133B1084460290E41A16430F2E00D9B4E0574BA2
S1133B20B6009B599F460300334399466CD100234A
S1133B309846023308260393CEE7CB464146039AC0
S1133B400197022A65D1019B4A4C9C46002300221E
S1133B5098466BE00300334399464ED0002E00D1C3
S1133B60BCE1300001F008FB03000B3B1C2B00DD23
S1133B70ACE11D22D31A5A460100DA4008398E40BE
S1133B801300334399465B468B40984600233C4CD4
S1133B900026241A03939FE751465A46114329D11C
S1133BA0002293460232B1E7594601431ED05B46D8
S1133BB0002B00D19EE1584601F0DEFA03000B3BD6
S1133BC01C2B00DD8FE102005946083A91408B46D8
S1133BD01D21CB1A5146D9400B0059460B4351467F
S1133BE09B469140264B00221B1A8FE7002301229B
S1133BF09B468BE75146032288E70023984601330E
S1133C0004260024039367E70323B14603930C2699
S1133C1062E7032A00D15CE2019B012A00D0E4E1BF
S1133C2013409C46002300240022984600211203DE
S1133C30130B0A0D12051A432305124C4046224069
S1133C40134362465B00D2075B081343190007B0B5
S1133C503CBC90469946A246AB46F0BD0023802268
S1133C609C4612039846034CE0E70023014C0022D3
S1133C709846DBE7FF07000001FCFFFFE0A200001D
S1133C800DFCFFFFFFFF0F80D94500D939E100D1BA
S1133C9034E1002346464D469A46013C5B460A0EF3
S1133CA01B021A430B02170C039313041B0C390059
S1133CB0280090460193FEF77BFE0200019B834699
S1133CC05A43280039009146FEF7F8FE350C0904E2
S1133CD00D43A9450DD95B464544013BA84500D990
S1133CE03AE1A94500D837E102235B429C464544AA
S1133CF0E3444B46EB1A390018000493FEF758FED0
S1133D00019B05004343390004989946FEF7D6FE0B
S1133D10330409041B0C0B43994509D943446A1E17
S1133D20984500D91AE1994500D817E1023D43446A
S1133D304A469B1A5A4612042A4303999346100C86
S1133D400A0C914609045A46090C4E460D00120409
S1133D50120C4543059151437243704352190E0CA2
S1133D60B218954203D980256D02AC466044150C07
S1133D7009041204090C28185218834200D2CEE018
S1133D8000D1C8E01D1A53469E1AB24592415242D0
S1133D90AB1A9A46984500D117E139001800FEF78E
S1133DA007FE019B05004343390050460493FEF788
S1133DB085FE04980B04310C1943884209D9414407
S1133DC06B1E884500D907E1884200D804E1023D12
S1133DD04144049BCB1A180039000493FEF7E8FD14
S1133DE0019B82464343390004980193FEF766FE23
S1133DF001980B043104090C194388420DD9534628
S1133E004144013B884500D9E8E0884200D8E5E018
S1133E1002235B429C464144E244019B2D04CE1A9A
S1133E2051462943059D4F462A000B04080C1B0CE0
S1133E305A4345437B4378435B19170CFB189D4257
S1133E4003D980256D02AC4660441D0C12041B048A
S1133E50120C28189B18864200D293E000D18EE001
S1133E6001231943A04BE318002B00DC99E04A0717
S1133E7000D09EE05A46D20106D55A469B4B1A40C2
S1133E8080239346DB00E318994A934268DD0123BB
S1133E90029A984C1A400023944698460022C5E69C
S1133EA080224B46120313420AD05B46134206D1CA
S1133EB01A431203120BAC4688468E4CB6E64B46A8
S1133EC01A431203120BBC468A4CAFE603005A464F
S1133ED0283B9A4000239146984657E6584601F0FD
S1133EE04BF9203040E603005246283B9A4000211B
S1133EF0934677E601F040F920305FE6884500D22A
S1133F00C7E64B46DE075D0843465B081E4343464F
S1133F10DB079A46C2E60025924500D333E7039EA9
S1133F205946B446E244B245AD416D424544EB18AE
S1133F300139984507D2984200D97FE000D1BCE00E
S1133F401D1A8B461FE79845FAD1039D5545F2D9B2
S1133F5043468B461D1A16E79B46CAE61500E7E65C
S1133F605A46C90852070A435B0590465C0D5A46F7
S1133F700123029952021940120B8C4656E6002B7B
S1133F8000D16FE746444A1EB04529D91100864244
S1133F9000D065E7039A934200D061E762E701210C
S1133FA049420120C21A382A21DD029B03409C4663
S1133FB038E60F220A40042A00D15BE70A00111DEB
S1133FC0914292415242934454E7474BE318002BE9
S1133FD0E5DD01225242F2E71D00FAE69A461CE7AB
S1133FE0B04239D86ED011003AE702933AE71F2A5B
S1133FF03CDC20239B1A0C005846994098404B1EE9
S113400099415B46D440D340204308431A004307F8
S113401009D00F230340042B05D00100081D88425A
S11340209B415B42D21813023AD50123029A012420
S11340301A400023944698460022F7E5022149429B
S11340408C46039DE344AC46E244AA45AD416D422F
S11340504544ED182D1A96E68A1E03994D008D42AB
S1134060894149424144761803958FE71F20404215
S1134070C31A5846D8400300202A28D040205D4661
S1134080821A954029434A1E91411943072300226D
S11340900B4009D00F2300220B400800042BBDD194
S11340A0010053075202120BC90819430123884621
S11340B00299002419408C46B8E55245BED88B4677
S11340C0002560E6039D9D42C6D3110062E70025EA
S11340D0D8E780225B4612031A43019B1203120B9A
S11340E09C468846034CA1E5FF030000FFFFFFFE4A
S11340F0FE070000FF070000F0B54F464646D646CF
S11341005C00C0B51F03DB0F9A46174B0E034D002E
S113411084468046360B6D0DC90F91463F0B640DE6
S113412001209D4208D09C4201D0A5420BD01CBC6A
S113413090469946A246F0BD63463343F7D1AC425C
S1134140F5D13A43F3D10120BE42F0D1C845EED1B6
S1134150514507D0002DEAD163461E433000461E68
S1134160B041E4E70020E2E7FF070000F0B5454670
S1134170DE4657464E46E0B51F033D0B2C4F0E035B
S11341804C00AB465D008446360B640DC90F904667
S11341906D0DDB0FBC422AD0254FBD422DD0002C23
S11341A00FD130430700814678427841C0B2002DD8
S11341B017D15F463A4314D14B460020002B0AD056
S11341C006E0002D02D15846024301D0994218D08E
S11341D04842012108433CBC90469946A246AB465E
S11341E0F0BD0028F2D00120013B1843F3E737006B
S11341F00743D1D002204042EDE75F461743CED0BB
S1134200F8E7AC42E4DC03DA481E01210843E2E7A4
S11342105E45DDD806D000205E45DCD20123481E71
S11342201843D8E7C445D3D80020C445F6D3D2E711
S1134230FF070000F0B54E464546DE4657465C0093
S1134240E0B51F03DB0F99462A4B0E034D00C90F3F
S11342508446360B6D0D8B4690463F0B640D9D4294
S113426020D0244B9C4222D0002D12D13043434213
S11342704341DBB2002C1FD0002B0CD04B46012055
S1134280013B034318003CBC90469946A246AB460A
S1134290F0BD002C16D0CB4517D05B465942012304
S11342A00B43EFE7310002230143EBD1D9E7390097
S11342B002231143E6D1D7E73A43DDD10023002896
S11342C0E0D0EAE73A43E6D1E7E7A542E5DC05DBDF
S11342D0BE42E2D807D00023BE42D3D259460123BE
S11342E001390B43CEE7C445D7D80023C445F5D3E1
S11342F0C8E7C046FF070000F0B557464546DE460E
S11343004E46E0B50C0398464E00230B87B00700D9
S113431092469B46760DCD0F002E6BD06D4B9E4280
S113432035D080245B46420F2404DB0014431C4335
S1134330C3009946684BA3469C4600230027664465
S1134340029343461C035A00DB0F5046240B520DC4
S1134350984600D176E05F4B9A426DD08023410F9E
S11343601B040B435C49E4008C461C43C30000203F
S113437062444146B6186940721C01919446074351
S11343800F2F00D9B0E0554ABF00D25997465B467B
S11343900343994600D087E000239B460233082755
S11343A00293CEE742460192022867D0032800D147
S11343B00EE2012800D062E1002300240022994685
S11343C001990140CDB2002112030B0D120B1B0504
S11343D01343434A240513401C436400ED07640857
S11343E02C434846210007B03CBC90469946A2465F
S11343F0AB46F0BD034399464FD05B46002B00D13A
S113440089E1584600F0B8FE03000B3B1C2B00DD8D
S11344107AE11D22D31A3A0001005C46DA400839D9
S11344208C4013008F4023439B46B94600232D4EF6
S11344300027361A029384E7534623432AD10024E3
S1134440022096E75346234320D0002C00D157E1A5
S1134450200000F091FE03000B3B1C2B00DD49E122
S11344601D21CB1A51460200D9405346083A9440C4
S113447093400C431B4A121A00207AE70125019B42
S1134480144C1D400023002299469CE7002400227E
S113449001206EE7534603206BE700239B4601335C
S11344A00427002602934CE7032381460C2702933A
S11344B047E780220023002512039946054C82E732
S11344C05C464B4602986FE75C464B460195029862
S11344D06AE7C046FF07000001FCFFFF20A30000BD
S11344E0FFFF0F800DFCFFFF4A464946170C1A0CCC
S11344F01B041B0C08041900000C414315008846DA
S113450019007D43794303958946290015004543E5
S11345104D44029545462D0CAA46029D5544A94595
S113452006D98A46802149028946CA4451460391E4
S1134530290C0491414609042D04090C88462900DC
S1134540250C24044144240C059121004143884650
S1134550210079438A466843414650448146080C09
S113456048446F43824503D98021490289464F4418
S1134570010C894639004944029141460F040499CB
S11345803F0C88460004C0198044414604915946B2
S11345900F0C0904090C884659438A4639005143D3
S11345A0894641464A435146090C8B467B43D218FF
S11345B05A44934203D980235B029B46D944514613
S11345C00904090C8A46414661437C43130C1204D6
S11345D04B445244A1468A463C0041466C434D43F9
S11345E051464D440F0C7D19A94503D98021490238
S11345F088464444049F0399B84641448B46834506
S1134600804141428846514608042F04000C3F185B
S11346105846029910188946904292414F44BA462E
S1134620524299469346C244D144CB448F42BF413F
S1134630C245894199459B41934592417F424942F4
S11346402D0C52420F435B4213437F19FF185B4604
S11346503C19DB0D059A64021C43430213435D1E9F
S1134660AB415A46C00D034352021343E20156D5EF
S113467001205A0803401343E207134364085A48CD
S1134680604400284DDD5A0709D00F221A40042A3D
S113469005D01A1D9A429B415B42E4181300E201C3
S11346A004D58020514AC00014406044504A9042CE
S11346B000DDE3E60125DB0862071A436402019B7F
S11346C09146220B4405640D1D407CE68022594628
S11346D01203114208D0144206D122431203120BD2
S11346E045469946434C6EE65B461A431203120B49
S11346F0404C68E603005446283B9C400023B9E63E
S113470000F03AFD2030A6E60300283B9F4000233A
S1134710BB4699468AE600F02FFD203074E6B44685
S1134720ADE701252A1A382A06DD019B00241D4025
S113473000230022994646E61F2A21DC202520007A
S1134740AD1A1E00AB40A840D6405D1EAB413043BD
S11347501843D440430709D00F230340042B05D04A
S11347600300181D98429B415B42E418230221D5A3
S11347700125019B01241D4000230022994622E6C5
S11347801F2521006D42281AC1400800202A1DD08F
S11347905F35AA1A944023435C1EA34107250343B3
S11347A01D400022002D09D00F2200241A401800B9
S11347B0042AD6D1030065076402220BDB082B43CD
S11347C001259946019B00241D40FCE50024E2E7F5
S11347D0802201251203224301991203120B0D407A
S11347E09946044CEFE5C046FF030000FFFFFFFEBF
S11347F0FE070000FF070000F0B54646D6464F46C8
S11348000C03C0B5CD0F4E00610A440F0C43C10028
S11348105800400D84468A460F001903500F490A78
S11348200143C648760DA846DB0FD200844500D16B
S1134830D8E001204340AB4200D1A6E06046351ADF
S1134840002D00DC05E1002810D10B00134300D13A
S1134850D7E06B1E002B00D04BE153469F1ABA459C
S11348608041641A4042241A01261EE0B34B9E4242
S113487048D080231B041943382D00DD19E11F2D76
S113488000DD4CE120230F005B1B10009A409F4089
S1134890E840531E9A41E940074317435346DF1B40
S11348A0611ABA45A44164420C1B230200D4C5E03A
S11348B06402650A002D00D1F6E0280000F05CFCDB
S11348C00300083B1F2B00DDE9E020223C00D21A44
S11348D09D40D4409F4025439E4200DDDBE09E1B6B
S11348E0731C1F2B00DD0AE120223800D21A290094
S11348F097402C009140D8407A1E9741DC40002616
S113490001430F437B0709D00F233B40042B05D001
S11349103B1DBB42BF417F42E4191F00230225D542
S1134920864B01369E4200D1AFE0854B01251C40E9
S113493043466207FF08640276051743240B760D8D
S11349401D4000212403230B0C0D7E4A24051C4327
S11349501440330523435B00ED075B082B43380009
S113496019001CBC90469946A246F0BD0125434659
S11349706207FF081743E4081D40704B9E4236D07F
S113498024037605240B760DDBE76346F31A002B2C
S113499000DC94E06046002835D068488642B1D0F7
S11349A080273F043943382B00DCFDE00A4317001D
S11349B000217A1E974157445745804109194442C2
S11349C00C1923023AD55D4B01369E4200D14BE1CE
S11349D001225B4B1C407B0817401F43E20717432F
S11349E064088FE70800104300D024E721E7230080
S11349F03B4300D1B9E18022120314432403240B66
S1134A009FE72E007EE70800104300D1CAE0581E3D
S1134A108446002800D0E7E052445245804164189F
S1134A204042241817000126230207D50226CFE7A7
S1134A3064462C4300D1B3E12C0067467B0700D0C9
S1134A4062E76307FF081F4301254346E4081D404E
S1134A5093E7002D78D1751C6D056D0D012D00DCDB
S1134A60F2E05046801A8245BF41651A7F42ED1B31
S1134A708446280200D48CE05046171ABA42924168
S1134A800C1B5542651B984614E701254346002438
S1134A901D40002755E72A4CF61A2C4032E73D000A
S1134AA028388540002717E7380000F065FB2030E0
S1134AB006E70A43170000217A1E9741EEE6002B11
S1134AC000D0E5E0731C9C465B055B0D012B00DC0C
S1134AD09FE01A4B9C4500D1C5E0524452458041A9
S1134AE0641840422418E7075208174364086646CE
S1134AF008E71248854200D185E01D00BCE6290084
S1134B001F3EF140202B00D17FE04022D31A9D406C
S1134B102F437D1EAF4100240F4300268EE72B0058
S1134B200F00203BDF40202D71D040235D1BA940A6
S1134B300A43511E8A4100211743AFE6FF070000D4
S1134B40FFFF7FFFFFFF0F80002E3ED0B34EB44522
S1134B5045D0802636046D423443382D00DDA8E06C
S1134B601F2D00DD1FE1202627005046761BB7408D
S1134B70E84007435046B040461EB041EC4038433D
S1134B80171ABA4292410C1B5242A41A664698461E
S1134B908BE6644667462C4300D08BE6002500264E
S1134BA00027EAE61E00ADE61F2B60DC2027F81A7A
S1134BB00F00844687401000D84007436046824077
S1134BC0501E8241D9401743F5E62600504606435D
S1134BD005D0ED43002DD3D0904EB445BDD10C008B
S1134BE01700664698468DE68C4883420BD0634690
S1134BF0D9E6002D00D096E00800104300D1E2E091
S1134C000C0017009846854E7CE6002580E70021BD
S1134C108EE7230050460343002E00D0A8E0002B6B
S1134C2000D1DEE00B00134300D16BE65244524541
S1134C3080416418404224181700230200D4FDE682
S1134C40774B66461C405DE6250050460543002E22
S1134C50CFD1002D4FD10C00144300D1A0E00C00A3
S1134C60170098464EE666460024002785E61F0096
S1134C700800203FF8400700202B00D18EE04020A0
S1134C80C31A99400A43511E8A410021174392E6F0
S1134C90002E14D126005046064362D0DB43002B7D
S1134CA05CD187189742924164185242A418664610
S1134CB087E650462043441EA041002460E7574E37
S1134CC0B4454ED0802636045B423443382B00DD95
S1134CD07FE01F2B00DD8BE0202627005046F61ACC
S1134CE0B740D84007435046B040461EB041074342
S1134CF0DC40BF18D6E70D00154300D102E650464C
S1134D00801A8245BF41651A7F42ED1B8446280202
S1134D1000D48DE65046171ABA4292410C1B5242F7
S1134D20A41A9846EEE50D00154300D16BE75046F2
S1134D306707C00807438020E4080003044207D043
S1134D40CD08054204D12C009846D70849070F43E3
S1134D507B0FE4001C43FF00304ED3E52F4EB445D7
S1134D60B4D10C0017006646CCE500270024E8E522
S1134D70002B39D00B00134300D144E7C008670768
S1134D8007438020E40800030442E1D0CB08034237
S1134D90DED1D70849070F431C00D9E7002171E78A
S1134DA000250027E9E52E002700203EF740202DAE
S1134DB02FD04026751BAC4050462043441EA041D2
S1134DC000243843DCE6802400252403134E002706
S1134DD0D3E5504620430700781E87410024BF18BE
S1134DE060E70C0017008DE50C0017000B4E89E5F9
S1134DF01E002700203EF740202B0CD04026F31A3B
S1134E009C4050462043441EA04107430024BF1841
S1134E1048E70024D0E70024F3E7C046FF0700007A
S1134E20FFFF7FFF70B50E4E0D031C0349005B00AE
S1134E302D0B490D240B5B0DB14204D00849002011
S1134E408B4208D070BD05430120002DFAD10449DE
S1134E5000208B42F6D114432000441EA041F1E708
S1134E60FF07000030B5134D0A034B00120B5B0D16
S1134E70C90F0024AB4210DD0F4CA3420FDC802489
S1134E800E4D64032243ED1A1F2D0BDD0C48C31A8B
S1134E90DA405442002900D11400200030BD094BEF
S1134EA0CC18FAE7084CE840A44663449A4002430D
S1134EB0EFE7C046FE0300001D04000033040000B9
S1134EC013040000FFFFFF7FEDFBFFFF70B5002818
S1134ED030D0C317C4185C40C50F200000F04CF953
S1134EE0174B184A1B1AD21A1F2A18DD164AD21A4F
S1134EF09440002224035B05240B5B0D0021100069
S1134F0024030A0D240B12052243104C1B052240D6
S1134F1013435B00ED075B082B43190070BD2100B0
S1134F2091400A000B21081AC4405B052403240B9A
S1134F305B0DE3E70025002300240022DEE7C046E2
S1134F401E0400003304000013040000FFFF0F8060
S1134F5010B5041E28D000F00FF9154B154A1B1A82
S1134F60D21A1F2A15DD144AD21A944000222403AF
S1134F705B05240B5B0D0021100024030A0D240B98
S1134F80120522430D4C1B05224013435B005908B4
S1134F9010BD210091400A000B21081AC4405B0592
S1134FA02403240B5B0DE6E7002300240022E2E740
S1134FB01E0400003304000013040000FFFF0F80F0
S1134FC04100090E4B1C70B5DBB24602750AC40FD2
S1134FD0012B14DDE0239B006D07360BCB18002159
S1134FE00A0D280012051C4D32435B052A405B085C
S1134FF013435B00E4075B082343190070BD0029D9
S113500014D1002D1ED0280000F0B6F80A281CDCAC
S11350100B232A001B1ADA40030015339D400F4B63
S113502012031B1A5B05160B5B0DD8E7002D06D087
S1135030320B802636036D071643094BCFE7084B26
S11350400026CCE700230026C9E703002A000B3B17
S11350509A400025E3E7C046FFFF0F808903000064
S1135060FF070000F0B54C00640D0B03621C450FF4
S11350705B0A52052B43C90FC500520D012A28DDD6
S11350803A4AA618FE2E1BDC002E3EDD80010200EB
S1135090501E82416D0F2A43DB0013435A0704D08C
S11350A00F221A40042A00D004338022D2041A406A
S11350B05AD00136FF2E03D09B015B0AF4B201E003
S11350C0FF2400235802E405400AC907204308438B
S11350D0F0BD002C07D01D43F2D08020DB008004FB
S11350E00343FF26DAE72B4303D00523DB08FF2C19
S11350F003D05B025B0AE4B2E4E7002B32D08020E9
S1135100C00303435B025B0ADCE73200173214DBA3
S113511080221E2712041343BF1B1F2F0FDC144AC7
S1135120944664442A00A5402E00A340751EAE4157
S1135130FA40334313430026B0E70024D5E70222A4
S11351405242961B1A00F240202F09D00948844687
S11351506444A3402B435D1EAB41002613439DE7EB
S11351600023F7E70023ADE73400BFE780FCFFFF2F
S113517082FCFFFFA2FCFFFF1C2101231B049842B9
S113518001D3000C10391B0A984201D3000A0839D4
S11351901B09984201D30009043902A2105C40188B
S11351A07047C0460403020201010101000000002F
S11351B00000000010B5002903D1FFF7DDFF203007
S11351C002E0081CFFF7D8FF10BDC046014B186869
S11351D07047C0460400002070B50D4E0D4D0024EC
S11351E0AD1BAD1005D0A300F35801349847A54278
S11351F0F9D105F0ADFA084E084D0024AD1BAD10F1
S113520005D0A300F35801349847A542F9D170BDE5
S11352105CA700005CA700005CA7000064A7000076
S1135220F0B5830743D0541E002A3FD0CEB202000B
S1135230032502E01A00013C38D3531C16702B429C
S1135240F8D1032C2AD9FF220A40150215432A0457
S113525015430F2C14D927001A00103F3E090136BC
S113526036019E19156055609560D56010329642DE
S1135270F8D10F2297431037DB191440032C0DD9B2
S11352801A00271FBE080136B6009E1920C2B2427A
S1135290FCD1032297430437DB191440002C05D0BA
S11352A0C9B21C19197001339C42FBD1F0BD140022
S11352B00300C6E70FB400B5064983B004AB086821
S11352C004CB8168019300F06DF903B008BC04B00D
S11352D01847C0460400002030B5040089B0080017
S11352E00D0000F02DF904AB214A0193022306922C
S11352F001220293A36B0590013004950792039059
S1135300A568002B2FD06B6EDB0724D40C23EA5E38
S113531091B28B051CD580239B01194205D11343FF
S1135320AB816A6E134B13406B66200001AA2900FF
S113533003F05EF8441EA04144420A206B6E04430D
S1135340DB0702D4AB899B0509D5200009B030BD29
S1135350A86D03F007FA0C23EA5E91B2DBE7A86DAF
S113536003F002FAF1E7200002F0BAFECBE7C046F0
S1135370D4A10000FFDFFFFF10B5034B0100186844
S1135380FFF7AAFF10BDC046040000204A424A416C
S1135390802310B55200DB0000F002F810BDC046B7
S11353A0F0B54746CE4680B51F00634B83B01D68F9
S11353B0040088461600002D02D0AB6B002B66D08B
S11353C0022E05D0012E00D9A1E0002F00DA9EE0C4
S11353D0636EDB0733D52100280002F027FE216B22
S11353E0002908D023004033994202D0280002F05B
S11353F021FF002323630023A36163600C22A35EC7
S11354001A063DD44D4A1340A381022E1ED001AB8F
S11354106A462100280003F0A9F9A3891843A08152
S1135420002F38D1009F380003F018FA8046002876
S113543000D16FE08022A3891343A3812EE0A389C6
S11354409B05C8D4A06D03F08DF9C4E700250222A2
S113545013430022A260220043322260226101220F
S1135460616EA3816261114204D19B0502D4A06DD7
S113547003F07AF9280003B00CBC90469946F0BDBD
S11354802169280002F0D6FE0C22A35EBAE72800A8
S113549002F026FE94E74346002BC4D0AB6B002BEE
S11354A027D0009B9F422AD08023A2891B0113434B
S11354B01BB2A381012E26D042462260226108221B
S11354C09BB267611A400BD0DA0710D50022012580
S11354D0A260626E7F42A7611540C6D00025C9E76D
S11354E0A2600125626E1540BFD00025C2E7A76007
S11354F0F7E7280002F0F4FD009B9F42D4D10C2270
S1135500A35E012ED8D101221343A381D4E7012540
S11355106D42AFE7009B9946BB4205D0180003F0EB
S11355209DF98046002804D101250C22A35E6D421A
S11355308DE74F467EE7C046040000205CF3FFFF82
S113554010B5830725D00378002B24D00300032152
S113555002E01A78002A1AD001330B42F9D11968F3
S11355600E4A0F4C8A188A43224206D10433196822
S11355700A4A8A188A432242F8D01A001B78002B60
S113558003D0013211780029FBD1101A10BD181A6A
S1135590FCE70300E3E70020F8E7C046FFFEFEFE59
S11355A080808080F0B5DE464E4645465746E0B5DD
S11355B0C3B0894614001D000F930600069003F043
S11355C0BFF8036818001893FFF7BAFF1790002E6E
S11355D004D0B36B0793002B00D1A7E04B465B6E5E
S11355E0DB0778D44B460C21595E8BB29A056ED5F5
S11355F080229201134209D10A434B4649469A81BB
S1135600496ECC4B0B4049464B6693B21A0767D59B
S11356104A461269002A63D01A221A400A2A00D183
S113562088E032AB25930023CB4625AFBB607B607B
S1135630079414931693159332AE19931A930A93FD
S1135640079C2378002B01D100F09EFD252B03D16C
S113565000F09AFD252B03D001342378002BF9D1D7
S1135660079BE51A10D0079B75603360BB685B1914
S1135670BB607B6801337B60072B4CDC08360A9BDC
S11356809C46AC4463460A932378002B01D100F076
S113569099FC631C0793002316AAD3770122524274
S11356A0924600220B9220329146203263780021E8
S11356B0002000249446079A013207921A00203AE7
S11356C0582A00D9E7E29C4D9200AA5897464B46C7
S11356D0986D03F047F84B460C21595E8BB287E76F
S11356E04946069801F00EFB4B4600283AD05B6E03
S11356F0DB0705D44B469B899B0501D400F0CFFF03
S113570001235B420A930A9843B03CBC90469946F5
S1135710A246AB46F0BD3A005946069804F0E6F9B5
S1135720002801D000F0CEFC32AEA8E7069802F0C3
S1135730D7FC53E74A460E21525E002A00DA70E78E
S11357404A46526ED20705D49B0503D44B46986D46
S113575003F00AF82B0022004946069801F08EFA5D
S11357600A90D0E79B8957E70B9B0F925B420B9300
S113577004231C43079B1B789DE7079B01211B788F
S11357802B2098E7079B5A1C1B7890462A2B01D1A3
S113579001F038FA1A000025303AAA46092A01D93C
S11357A001F06DF925004346544688468246A1001F
S11357B00C1918786400A4180200591C303A0B0024
S11357C0092AF4D90791030041465046A2462C0009
S11357D074E71293002901D001F02EFA574B199364
S11357E0A30601D500F09AFEE30601D500F09AFD68
S11357F0630601D400F096FD0F9B1A880C920022D8
S113580004330D920F93E30701D400F076FD0C9955
S11358100D9A0B0013431A000223002A08D03020EB
S11358201EA9087048256846401900781C43487032
S11358300021884616A8C1775146013100D1E6E01F
S11358408021200088430990002A00D0E3E05246DA
S1135850002A01D000F038FC002B01D000F00CFD30
S1135860012032AB20400E90119308D02723302121
S113587028AAD15416AA9446483363441193534634
S11358800E9A0893924500DA089200231393434634
S1135890002B02D0089B013308930223099A1A4073
S11358A0914602D0089B023308938423099A1A4034
S11358B0109200D007E20B9B089A9C1A002C00DC83
S11358C001E21F49BA687B688846102C21DD31004B
S11358D010255E4603E0103C0831102C17DD4046CD
S11358E01032013308604D60BA607B60072BF2DD33
S11358F03A003100069804F0F9F8002801D000F0CD
S1135900CFFC103CBA687B6832A9102CE7DCB346A4
S11359100E00414674600133A4183160BC607B60A2
S1135920072B01DD00F0AEFC16ABDB7F0836984692
S1135930CAE1C046FFDFFFFF64A30000ECA400003F
S11359400CA500000022079D303BA8460B921A00CC
S113595008942C0055468246404688461100002291
S113596093009A18037852008A18190001343039C8
S113597020000929F4D907945046089C0B9241460B
S1135980AA469BE60F9A12931368202108936B464C
S11359905B181B7828AD2B70002316A9CB77130056
S11359A004330F93002309949846013308930E930C
S11359B0002311959A4613936FE71293002901D09F
S11359C001F04DF90F9AA30601D500F05AFDE30644
S11359D001D500F0ABFC630601D400F0A7FC002164
S11359E0535E0C930432DB170D930F92002B01DAF4
S11359F000F0B2FD0C990D9A0800514616ABDB7FFE
S1135A001043984602000123013100D018E7002A10
S1135A1000D15AE30994012B01D100F006FC022BBA
S1135A2000D080E3199C0F20A146B44632AB190084
S1135A300C9A0D9B04004D4614402C5D1E0715095D
S1135A4001392E430C701C092300340032001C431E
S1135A50F0D10C920D9332AB5B1A119166460E9302
S1135A600DE763461C43079B1B7824E6079B1B78C2
S1135A706C2B01D100F08CFE102214431BE600298C
S1135A8001D001F0D5F8A30601D500F076FEE306B7
S1135A9000D510E1630600D40DE169460F9B098D22
S1135AA01A680433089211800F93C9E50F993022C4
S1135AB00B680C9300230D9302331C431EAB1A7026
S1135AC048325A700B0004330F93C14B129219934E
S1135AD00C9A0223ACE64B461C43079B1B78EAE571
S1135AE012930F9B16A91D1D1B681A001193002306
S1135AF0CB77002A01D100F001FF5346013301D1D5
S1135B0000F064FE52460021119803F065F9002864
S1135B1001D100F078FF119BC31A1A000E93DB43E6
S1135B20DB171A4016ABDB7F0892984600230F95CB
S1135B3009949A461393AAE608231C43079B1B78EF
S1135B40B9E5129310231C43A30601D500F0A7FC6A
S1135B50E30600D5EEE3630600D4EBE30F9B1A885B
S1135B600C92002204330D920F930C9A00235FE6EB
S1135B70129310231C43A30601D500F0BAFCE306DC
S1135B8000D5DAE3630600D4D7E30F9B1A880C929E
S1135B90002204330D920F930C9A012348E61293CA
S1135BA0002901D001F057F88A4B199318E6012314
S1135BB01C43079B1B787EE580231C43079B1B78B3
S1135BC079E5079B1B78002800D074E5012120307B
S1135BD071E51293002901D001F039F807220F9BD7
S1135BE007339343013294469C4462460F921A68E9
S1135BF016925B6801221593159B169D5B005B084A
S1135C0098465242744B28004146FFF70BF900288E
S1135C1001D000F0B4FC01226F4B524228004146EF
S1135C20FDF75CF8002801D000F0A9FC0022002355
S1135C3016981599FDF748F8002801D000F055FD95
S1135C4016ABDB7F9846129B472B01DD00F0B4FDB9
S1135C50624B119380239C437D3B08930E93002356
S1135C6009949A46139312E60F9B1A1D1B680B9313
S1135C70002B00DA78E5079B0F921B781BE5129343
S1135C80002901D000F0CCFF10231C439AE61293A4
S1135C9071E7129358E71293002901D000F0D3FF63
S1135CA0129B002B00D18DE128AD2B70002316AA86
S1135CB0D377099478E60F9A0A9913681960130048
S1135CC004330F93BCE4BC684346002B0FD016AAE0
S1135CD01F23944663443360012373607B6801345B
S1135CE00133BC607B60072B00DD03E208364B46C2
